{
    "_format": "hh-sol-artifact-1",
    "contractName": "GlobalPassport",
    "sourceName": "contracts/GlobalPassport.sol",
    "abi": [
        {
            "inputs": [],
            "stateMutability": "payable",
            "type": "constructor"
        },
        {
            "anonymous": false,
            "inputs": [
                {
                    "indexed": false,
                    "internalType": "string[]",
                    "name": "citizenBio",
                    "type": "string[]"
                },
                {
                    "indexed": false,
                    "internalType": "string[]",
                    "name": "citizenInfo",
                    "type": "string[]"
                }
            ],
            "name": "EmitPassportData",
            "type": "event"
        },
        {
            "inputs": [
                {
                    "internalType": "string[]",
                    "name": "_citizenBio",
                    "type": "string[]"
                },
                {
                    "internalType": "string[]",
                    "name": "_citizenInfo",
                    "type": "string[]"
                }
            ],
            "name": "createNewPassport",
            "outputs": [],
            "stateMutability": "nonpayable",
            "type": "function"
        },
        {
            "inputs": [],
            "name": "getCitizen",
            "outputs": [
                {
                    "components": [
                        {
                            "internalType": "string[]",
                            "name": "citizenBio",
                            "type": "string[]"
                        },
                        {
                            "internalType": "string[]",
                            "name": "citizenInfo",
                            "type": "string[]"
                        }
                    ],
                    "internalType": "struct GlobalPassport.PassportData[]",
                    "name": "",
                    "type": "tuple[]"
                }
            ],
            "stateMutability": "view",
            "type": "function"
        }
    ],
    "bytecode": "0x60806040526200003360405180606001604052806021815260200162000dfd602191396200003960201b6200033f1760201c565b620001cd565b620000d98160405160240162000050919062000146565b6040516020818303038152906040527f41304fac000000000000000000000000000000000000000000000000000000007bffffffffffffffffffffffffffffffffffffffffffffffffffffffff19166020820180517bffffffffffffffffffffffffffffffffffffffffffffffffffffffff8381831617835250505050620000dc60201b60201c565b50565b60008151905060006a636f6e736f6c652e6c6f679050602083016000808483855afa5050505050565b600062000112826200016a565b6200011e818562000175565b93506200013081856020860162000186565b6200013b81620001bc565b840191505092915050565b6000602082019050818103600083015262000162818462000105565b905092915050565b600081519050919050565b600082825260208201905092915050565b60005b83811015620001a657808201518184015260208101905062000189565b83811115620001b6576000848401525b50505050565b6000601f19601f8301169050919050565b610c2080620001dd6000396000f3fe608060405234801561001057600080fd5b50600436106100365760003560e01c80630b0188f71461003b5780635bf869dd14610059575b600080fd5b610043610075565b6040516100509190610960565b60405180910390f35b610073600480360381019061006e9190610680565b610286565b005b60606001805480602002602001604051908101604052809291908181526020016000905b8282101561027d578382906000526020600020906002020160405180604001604052908160008201805480602002602001604051908101604052809291908181526020016000905b8282101561018d57838290600052602060002001805461010090610b18565b80601f016020809104026020016040519081016040528092919081815260200182805461012c90610b18565b80156101795780601f1061014e57610100808354040283529160200191610179565b820191906000526020600020905b81548152906001019060200180831161015c57829003601f168201915b5050505050815260200190600101906100e1565b50505050815260200160018201805480602002602001604051908101604052809291908181526020016000905b828210156102665783829060005260206000200180546101d990610b18565b80601f016020809104026020016040519081016040528092919081815260200182805461020590610b18565b80156102525780601f1061022757610100808354040283529160200191610252565b820191906000526020600020905b81548152906001019060200180831161023557829003601f168201915b5050505050815260200190600101906101ba565b505050508152505081526020019060010190610099565b50505050905090565b6001604051806040016040528084815260200183815250908060018154018082558091505060019003906000526020600020906002020160009091909190915060008201518160000190805190602001906102e2929190610401565b5060208201518160010190805190602001906102ff929190610401565b5050507fbe7f04e1ba8753d3c3915e8d88efad49ee42f9275b8fda633de5b83b6bb4d7a48282604051610333929190610929565b60405180910390a15050565b6103d5816040516024016103539190610982565b6040516020818303038152906040527f41304fac000000000000000000000000000000000000000000000000000000007bffffffffffffffffffffffffffffffffffffffffffffffffffffffff19166020820180517bffffffffffffffffffffffffffffffffffffffffffffffffffffffff83818316178352505050506103d8565b50565b60008151905060006a636f6e736f6c652e6c6f679050602083016000808483855afa5050505050565b828054828255906000526020600020908101928215610450579160200282015b8281111561044f57825182908051906020019061043f929190610461565b5091602001919060010190610421565b5b50905061045d91906104e7565b5090565b82805461046d90610b18565b90600052602060002090601f01602090048101928261048f57600085556104d6565b82601f106104a857805160ff19168380011785556104d6565b828001600101855582156104d6579182015b828111156104d55782518255916020019190600101906104ba565b5b5090506104e3919061050b565b5090565b5b8082111561050757600081816104fe9190610528565b506001016104e8565b5090565b5b8082111561052457600081600090555060010161050c565b5090565b50805461053490610b18565b6000825580601f106105465750610565565b601f016020900490600052602060002090810190610564919061050b565b5b50565b600061057b610576846109c9565b6109a4565b9050808382526020820190508285602086028201111561059a57600080fd5b60005b858110156105e457813567ffffffffffffffff8111156105bc57600080fd5b8086016105c98982610656565b8552602085019450602084019350505060018101905061059d565b5050509392505050565b60006106016105fc846109f5565b6109a4565b90508281526020810184848401111561061957600080fd5b610624848285610ad6565b509392505050565b600082601f83011261063d57600080fd5b813561064d848260208601610568565b91505092915050565b600082601f83011261066757600080fd5b81356106778482602086016105ee565b91505092915050565b6000806040838503121561069357600080fd5b600083013567ffffffffffffffff8111156106ad57600080fd5b6106b98582860161062c565b925050602083013567ffffffffffffffff8111156106d657600080fd5b6106e28582860161062c565b9150509250929050565b60006106f88383610873565b905092915050565b600061070c83836108e5565b905092915050565b600061071f82610a46565b6107298185610a81565b93508360208202850161073b85610a26565b8060005b85811015610777578484038952815161075885826106ec565b945061076383610a67565b925060208a0199505060018101905061073f565b50829750879550505050505092915050565b600061079482610a46565b61079e8185610a92565b9350836020820285016107b085610a26565b8060005b858110156107ec57848403895281516107cd85826106ec565b94506107d883610a67565b925060208a019950506001810190506107b4565b50829750879550505050505092915050565b600061080982610a51565b6108138185610aa3565b93508360208202850161082585610a36565b8060005b8581101561086157848403895281516108428582610700565b945061084d83610a74565b925060208a01995050600181019050610829565b50829750879550505050505092915050565b600061087e82610a5c565b6108888185610ab4565b9350610898818560208601610ae5565b6108a181610bd9565b840191505092915050565b60006108b782610a5c565b6108c18185610ac5565b93506108d1818560208601610ae5565b6108da81610bd9565b840191505092915050565b600060408301600083015184820360008601526109028282610714565b9150506020830151848203602086015261091c8282610714565b9150508091505092915050565b600060408201905081810360008301526109438185610789565b905081810360208301526109578184610789565b90509392505050565b6000602082019050818103600083015261097a81846107fe565b905092915050565b6000602082019050818103600083015261099c81846108ac565b905092915050565b60006109ae6109bf565b90506109ba8282610b4a565b919050565b6000604051905090565b600067ffffffffffffffff8211156109e4576109e3610baa565b5b602082029050602081019050919050565b600067ffffffffffffffff821115610a1057610a0f610baa565b5b610a1982610bd9565b9050602081019050919050565b6000819050602082019050919050565b6000819050602082019050919050565b600081519050919050565b600081519050919050565b600081519050919050565b6000602082019050919050565b6000602082019050919050565b600082825260208201905092915050565b600082825260208201905092915050565b600082825260208201905092915050565b600082825260208201905092915050565b600082825260208201905092915050565b82818337600083830152505050565b60005b83811015610b03578082015181840152602081019050610ae8565b83811115610b12576000848401525b50505050565b60006002820490506001821680610b3057607f821691505b60208210811415610b4457610b43610b7b565b5b50919050565b610b5382610bd9565b810181811067ffffffffffffffff82111715610b7257610b71610baa565b5b80604052505050565b7f4e487b7100000000000000000000000000000000000000000000000000000000600052602260045260246000fd5b7f4e487b7100000000000000000000000000000000000000000000000000000000600052604160045260246000fd5b6000601f19601f830116905091905056fea2646970667358221220af0d459d247e391342078a1f065e287e5309347eda521da4e41a9b690d45256864736f6c63430008040033476c6f62616c2050617373706f727420436f6e747261637420537461727465642e",
    "linkReferences": {},
    "deployedLinkReferences": {}
}